S01000004C43446472697665722E73313985
S1130100CE10000F1D3C201C01F01D001086FFA71F
S1130110078600C630A7041C0010BD01BDE706BD5C
S113012001BD1D0010BD01C78600C634A7041C0014
S113013010BD01BDE706BD01BD1D0010BD01C78690
S113014000C634A7041C0010BD01BDE706BD01BDF7
S11301501D0010BD01C78600C60EA7041C0010BDFB
S113016001BDE706BD01BD1D0010BD01C78600C667
S113017006A7041C0010BD01BDE706BD01BD1D009E
S113018010BD01C78600C601A7041C0010BD01BD37
S1130190E706BD01BD1D0010C600BD01BDE706BDDB
S11301A001C7BD01D01C00001D01081C3C200E3FEE
S11301B03918CE011E201418CE0064200E18CE006B
S11301C01E200818CE000A18CE0B29180926FC395F
S11301D03CCE0235E6002709BD01E308BD01BD2080
S11301E0F338393C36CE10008602A704BD01BD1C8D
S11301F00010BD01BDE706C600BD01BD1D0010BD58
S113020001BDE706323839B6102E848027F9F7107D
S11302102F39FC100EC30005FD101A1D23201F23C7
S113022020FC39F6102EC420270AF6102FC103260D
S1130230033F2000394D4F4E4B455920562773201C
S1090240524F424F54002E
S9030100FB
