S00E00004C4344746573742E73313953
S11301007E011600706F696E7420610004706F695F
S11301106E74206200048EDFFF863FBD019D8680E1
S1130120C600BD02238647C610BD0223866FC610D3
S1130130BD0223866FC610BD02238664C610BD02AD
S1130140238620C610BD0223864DC610BD02238619
S11301506FC610BD02238672C610BD0223866EC60A
S113016010BD02238669C610BD0223866EC610BD6B
S113017002238667C610BD022386C0C600BD0223C3
S11301808644C610BD02238661C610BD022386764E
S1130190C610BD02238665C610BD02233F36860005
S11301A0B71003B71000B71007CE9C40098C0000AD
S11301B026FA86FFB71007863FB71003BD026C8688
S11301C020B71000BD026C8600B71000B71003CE34
S11301D02328098C000026FA863FB71003BD026C61
S11301E08620B71000BD026C8600B71000B710035C
S11301F0CE01F4098C000026FA863FB71003BD0235
S11302006C8620B71000BD026C8600B7100032C6A1
S113021000BD0223860CC600BD02238601C600BDB4
S113022002233937368600B710078608B71000BD99
S1130230026C8628B71000BD026CB610038480815E
S11302408027E78600B7100086FFB7100732B71083
S11302500333F71000F70103BD026CB601038A20D3
S1130260B71000BD026C8600B7100039C61E5AC113
S10702700026FB392C
S9030000FC
